:030000000206C92C
:0C06C900787FE4F6D8FD75816E02071002
:1004E6001201100100000040C410708500000102D6
:1004F6000001090229000101008020090400000210
:1005060003000000092101010001224400070581C2
:1005160003400001070501034000010600FF090131
:10052600A10185FE9508750826FF001500090181C1
:100536000285FD9508750826FF0015000901910240
:100546008501953E750826FF001500090181028583
:1005560002953E750826FF00150009019102C004A8
:100566000309040A0348005A005700420028034EB4
:100576000045005400550053004200320034004C40
:10058600003000310020004E00450057004D00535A
:050596000047002000F9
:0B0C58000966FF0565FF0569FF0573D5
:070C63000318000303C100A8
:0300430002059B18
:10059B00C0E0C0F0C083C082C0D075D000C000C026
:0D05AB0001C002C003C004C005C006C007A7
:1005B800E59620E7FB759686E59620E7FB85972D5F
:1005C800E59620E7FB759682E59620E7FB85972E52
:1005D800E59620E7FB759684E59620E7FB85972F3F
:1005E800E52D30E103120FCCE52D30E203120F4F59
:1005F800E52E30E003120046E52E30E103120FF637
:10060800E52F30E10312099AE52D30E003120FD5EA
:10061800D007D006D005D004D003D002D001D00036
:0B062800D0D0D082D083D0F0D0E032E0
:100F4F00750802E59620E7FB759601759701E4F5A4
:080F5F0018751903751A03222D
:080FCC000531E531700205302A
:010FD40022FA
:10004600E59620E7FB75960EE4F597E59620E7FB27
:10005600759691E59620E7FB859730E518B4050D72
:10006600E59620E7FBE4F596850F97F518E5303021
:10007600E20EE59620E7FB759611E4F597F5182252
:10008600E53030E419E59620E7FB7596117597087B
:10009600E59620E7FB759611759780E4F518E51847
:1000A6006003020189E53020E0030201897B007AC2
:1000B60000790C7D087C007F20120006E50FFE7C8F
:1000C60000E4250EF50FEC3EF50EE511FEE42510D5
:1000D600F511EC3EF510E513FEE42512F513EC3EA2
:1000E600F512E50C547F64217037E50D24FE601B84
:1000F60014602224FA600F14601614601D240A701E
:100106001E120E9C807D120ECA8078120FFD80731F
:10011600120F91806E120FFE8069120FFF806480AD
:100126005FE50DB40C005058900135F8282873028D
:10013600015902015E020186020163020186020183
:100146006802016D02018602017202017702017CDA
:10015600020181120633802B1208BD80261207D5B4
:100166008021120C17801C1202C68017120A6A80A0
:1001760012120755800D120B348008120DB1800340
:10018600120F35E5186401600302021DE53030E107
:100196000302021DE59620E7FB759691E59620E79A
:1001A600FB859730E53030E40320E06B753002C301
:1001B600E5179440E5169400AB09AA0AA90B402D51
:1001C6007D407C007F20120CD67440250BF50BE495
:1001D600350AF50A74C02517F51774FF3516F51696
:1001E60074402515F515E43514F514800FAD17ACDC
:1001F600167F20120CD6433008E4F518E515B51322
:100206000BE514B51206433008E4F518E59620E729
:10021600FB759611853097E518640260030202C5E6
:10022600E59620E7FB759691E59620E7FB859730E6
:10023600E53020E0030202C5753040C3E51794405F
:10024600E5169400AB09AA0AA90B402D7D407C0057
:100256007F201200067440250BF50BE4350AF50ADB
:1002660074C02517F51774FF3516F5167440251555
:10027600F515E43514F514800FAD17AC167F201272
:100286000006433008E4F518E515B5130BE514B57B
:100296001206433008E4F518E5187012E50DB409A6
:1002A6000DAB09AA0AA90B12092CFF120E6EE5184E
:0F02B60064046005E59620E7FB75961185309787
:0102C5002216
:060FF600E4F519C200221F
:10099A00E4F530E59620E7FB75960E759701E59626
:1009AA0020E7FB759694E59620E7FBAF97E519B427
:1009BA00030CE59620E7FB75961475972022EF3015
:1009CA00E60BE59620E7FB759614759780120FB231
:1009DA00E53EFD7C00AB3FAA40A9417F21120006FB
:1009EA00AB3FAA40A94112092CFF120E6EE59620D0
:0809FA00E7FB759614E4F59784
:010A020022D1
:080FD5000531E5317002053021
:010FDD0022F1
:060006008B318A328933C0
:10000C00ED4C602D8F964396C0E4FFFEC3EF9DEE42
:10001C009C501BE59620E7FBAB31AA32A9338F82AB
:10002C008E83E5971209720FBF00010E80DEE4F596
:01003C00962D
:01003D0022A0
:0A0C97008C218D228B238A248925ED
:100CA100E5224521602EE59620E7FB8F96E4FFFEC5
:100CB100C3EF9522EE9521501BAB23AA24A9258FC2
:100CC100828E83120945F597E59620E7FB0FBF0059
:040CD100010E80DCB4
:010CD50022FC
:0A0CD6008C318D328B338A3489355E
:100CE000E5324531602EE59620E7FB8F96E4FFFE66
:100CF000C3EF9532EE9531501BAB33AA34A9358F33
:100D0000828E83120945F597E59620E7FB0FBF0019
:040D1000010E80DC74
:010D140022BC
:100F3500E59620E7FB75960EE4F597E59620E7FB29
:0A0F450075961175972075180422A7
:10084A00C2AFD200E59620E7FB759691E59620E7C0
:10085A00FBAE97E519B4030DE59620E7FB759611F3
:10086A00759710804BE5197047751901EE30E50B45
:10087A00E59620E7FB759611759740EE30E20BE599
:10088A009620E7FB759611E4F597D2AF120E405306
:10089A00E6FDE54AFD7C00AB4BAA4CA94D7F21122F
:1008AA000C97E59620E7FB75961175970143E602CA
:0208BA00D2AFBB
:0108BC002219
:100DE300C281120FDE120B87C2AF120AD0D2AFC27A
:100DF30081E5567005120FA380F7D2A8C289E51CBE
:0F0E0300B401FBE4F51C7F0112084AD28180EF95
:100C6A00084E01FF0F7FFEFF0042084202FF03F019
:070C7A00FDFF0FFC01560015
:01004200229B
:100F7F009000407401F0F54B754C00754D40754A6B
:020F8F003F22FF
:010FFC0022D2
:1003F000A2AFE433F521752200752300900003E0DD
:100400007012C281C2AF7B017A007904120A03D252
:10041000AFD28122C281900003E024FE60591460B3
:10042000791470030204C0240360030204E3C2AF22
:10043000C287E4F556FB7A007961752B057F30128F
:100440000D4A7B017A007904120A03C2877B007A85
:1004500000795C752B057F30120D4A7D3F7F20129D
:100460000F20D287120FA3120FA3755601E5212486
:10047000FF92AFD281806C900004E0F55CA3E0F5C0
:100480005DA3E0F55EA3E0F55FC2AFC2877B007AB3
:1004900000795C752B057F308021900004E0F557D2
:1004A000A3E0F558A3E0F559A3E0F55AC2AFC2871F
:1004B0007B007A007957752B057F2A120D4A800E32
:1004C000C2AFC287900004E0FD7F25120F207D3F60
:1004D0007F20120F20D287E52124FF92AF120FA3B5
:0504E000120FA3D28100
:0104E50022F4
:0D0FB200753F01754000754100753E3F22FE
:020E12008F311E
:100E1400E4F532E53225E025E0244EF8E6B531125A
:100E2400E53225E025E0244FF808E6FA08E6F90261
:0B0E340009940532E532D3940240D847
:010E3F002290
:020E40008F2100
:100E4200E4F522E52225E025E0244EF8E6B521125C
:100E5200E52225E025E0244FF808E6FA08E6F90243
:0B0E620009940522E522D3940240D839
:010E6D002262
:020E6E008F31C2
:100E7000E4F532E53225E025E02442F8E6B531120A
:100E8000E53225E025E02443F808E6FA08E6F90211
:0B0E900009940532E532D3940240D8EB
:010E9B002234
:04003E0001000000BD
:10063300E50E700EE50F700AE5127006E51364020D
:100643006003120F35E50C247F6011146028240227
:100653007057E5107053E5116011804DE508B4043F
:1006630008E5107004E5116002803E7509FF750A04
:1006730000750B408029E508B40404E5106002808E
:1006830028E511B48121E519B4030B7509FF750A37
:1006930000750B3E80097509FF750A00750B4075DF
:1006A300160075170280058000120F35E5186404E3
:1006B3006013E59620E7FB75961175974075180151
:0606C300E4F514F5152218
:1008BD00E508B40418E50C604664016042E50E706D
:1008CD003EE510703AE5127036E51360028030E5B2
:1008DD000C6402702AE50F7026E51164817020E525
:1008ED0011B4811EE59620E7FB75960E759701E50F
:1008FD009620E7FB759611759740E4F51980031264
:10090D000F35E59620E7FB75960EE4F597E518642F
:0F091D0004600BE59620E7FB759611759748224D
:1007D500E508B40418E50C604C64016048E50E704A
:1007E50044E5107040E512703CE51360028036E583
:1007F5000C64027030E50F702CE51164816006E52C
:100805001164017020E511B4811EE59620E7FB75A2
:10081500960E759701E59620E7FB7596117597106D
:10082500751A038003120F35E59620E7FB75960EC2
:10083500E4F597E5186404600BE59620E7FB7596EB
:05084500117597482227
:100C1700E50C7019E5107015E5117011E512700DEE
:100C2700E5137009E50E7005E50F30E703120F3580
:100C3700751805E50F60057508038003750802E55B
:100C4700186404600BE59620E7FB759611759748C5
:010C5700227A
:1002C600E50E24DF700302037C14700302039124FD
:1002D60021B4050040030203A29002ED75F003A4C9
:1002E600C58325F0C583730202FC02030A02032AB2
:1002F6000203460203567509FF750A04750BE6905C
:1003060004E680487509FF750A04750BF89004FB2E
:10031600E493FE9004FAE4937C002400F517EC3E87
:10032600F516807BE50F75F003A42466F8860308AE
:10033600E6FA08E6F98B098A0AF50B12092C8044BD
:100346007509FF750A05750B01900501E493803464
:10035600E50F64817046E50FB4810B7509FF750AD8
:1003660005750B1380097509FF750A05750B1A903B
:100376000513E493800E7509FF750A05750B0A903F
:10038600050AE493751600F51780147509FF750ABA
:1003960005750B217516007517448003120F35E598
:1003A6000E64016017E50E64026011E50E640360D9
:1003B6000BE50E64046005E50EB40514C3E513955C
:1003C60017E49516500AE51270068512168513175E
:1003D600E51864046013E59620E7FB75961175979A
:0A03E60040751801E4F514F5152226
:100A6A00E50CB4801AE50E7016E50F7012E51070E9
:100A7A000EE511700AE5127006E5136401600512AD
:100A8A000F358028E508B4040F7509FF750A00754B
:100A9A000B3E751600751701E508B4030F7509FFBB
:100AAA00750A00750B40751600751701E518640480
:100ABA006013E59620E7FB75961175974075180146
:060ACA00E4F514F515220D
:10075500E5086402601FE50C701BE5107017E511D4
:100765007013E512700FE513700BE50E7007E50FBA
:10077500D394014005120F358044E50FD394004012
:1007850037750804E4F519E59620E7FB75960E75AF
:100795009701E59620E7FB759612759704E5962077
:1007A500E7FB759615759780E59620E7FB75960E20
:1007B500E4F597120FF68006750803751903E51819
:1007C5006404600BE59620E7FB7596117597482242
:100B3400E5086404701FE50CB4811AE50E7016E52F
:100B44000F7012E510700EE511700AE5127006E5DB
:100B54001364016005120F35800F7509FF750A00D3
:100B6400750B40751600751701E51864046013E5EC
:100B74009620E7FB759611759740751801E4F514F6
:030B8400F5152242
:100DB100E50CB40118E5127014E5137010E50E701E
:100DC1000CE50F7008E5107004E5116003120F3592
:100DD100E5186404600BE59620E7FB75961175979D
:020DE1004822A6
:010FFD0022D1
:010FFE0022D0
:010FFF0022CF
:100F9100E5186404600BE59620E7FB7596117597DB
:020FA1004822E4
:100E9C00AF0F120E12854B09854C0A854D0B75163A
:100EAC0000854A17E51864046013E59620E7FB7586
:0E0EBC009611759740751801E4F514F515228E
:100ECA00120FB2853F0985400A85410B85121685A6
:100EDA001317E51864046013E59620E7FB7596116D
:0C0EEA00759740751802E4F514F5152208
:090FDE00120F67120FEF020FE77A
:100B8700E59620E7FB759601759708E59620E7FB44
:100B9700759607759707E59620E7FB75960975978C
:100BA70007E59620E7FB75960B75970775D7E0E580
:100BB7009620E7FB75960F75978043E602E596202A
:090BC700E7FB7596017597012208
:100F670043B283E4F5B943B980120FA343B9C0E58F
:080F7700B930E5FB75A9022267
:070FEF0043A40243E240228B
:0E0FA300E4FFFE0FBF00010EBE01F8BFF4F523
:010FB100221D
:080FE700D2A8438908C2892247
:03000300020BD01D
:100BD000C0E0C0F0C083C082C0D075D000C000C0EB
:100BE00001C002C003C004C005C006C0077B017A73
:100BF000007944120D15EF6003751C01D007D00673
:100C0000D005D004D003D002D001D000D0D0D08203
:070C1000D083D0F0D0E032E8
:100C8100056135471910E7055C34431010E7055736
:050C910034431010E7E0
:100AD00075A61775A02043E240120FA3120F1AE467
:100AE000FD7F21120F207D017F22120F207D037FC9
:100AF00023120F20E4FD7F24120F20E4FD7F251236
:100B00000F207D0F7F26120F207D207F31120F20B6
:100B10007B007A00795C752B057F30120D4A7B00D3
:100B20007A007957752B057F2A120D4A120F1CD2B5
:040B300087020FA386
:100EF600C2A1E4FEEF5480C4131313540124FF92DD
:100F0600A4EF25E0FFD2A1A2A5E4334207C2A10EB9
:030F1600BE08E131
:010F190022B5
:060F1A00C2877D3F7F202D
:020F2000AC051E
:100F2200E4FBC2A0120EF6AB07AF04120EF6D2A07B
:020F3200AF030B
:010F3400229A
:0C0FBF00C2A0120EF6E4FF120EF6D2A043
:010FCB002203
:060D7E008B398A3A893B23
:100D8400E4F53DFCC2A0120EF68F3DECC3953C5039
:100D940017E4FF120EF6AB39AA3AA93B8C8275838D
:0C0DA40000EF1209720C80E3D2A0AF3DFA
:010DB0002220
:060D4A008B288A29892A8A
:100D5000E4F52CFCC2A0120EF68F2CECC3952B50A0
:100D600018AB28052AE52AAA297002052914F912C8
:0D0D7000092CFF120EF60C80E2D2A0AF2C71
:010D7D002253
:100D1500E4F536F5377F07120FBF8F37E53730E635
:100D25000FC287C281753C207F61120D7E75360129
:100D3500AD377F27120F20120F1AD287120FA3008B
:040D45000000AF36C5
:010D49002287
:100A0300E4F525A2AF33F526C2AFC287752B207F4D
:100A1300A0120D4A7D3E7F20120F20D287120FA312
:100A2300E4F52505257F07120FBF8F24E52420E574
:100A33001800000000000000000000E525D394FA30
:100A430040E1E4FD7FE1120F200000C287AD247F67
:100A530027120F2000120F1CD287120FA3000000D1
:060A6300E52624FF92AF1E
:010A6900226A
:1006D500020DE3E493A3F8E493A34003F68001F24B
:1006E50008DFF48029E493A3F85407240CC8C33326
:1006F500C4540F4420C8834004F456800146F6DFF5
:10070500E4800B0102040810204080900C58E47E20
:10071500019360BCA3FF543F30E509541FFEE493E9
:10072500A360010ECF54C025E060A840B8E493A3B0
:10073500FAE493A3F8E493A3C8C582C8CAC583CADB
:10074500F0A3C8C582C8CAC583CADFE9DEE780BE93
:010C9600005D
:10092C00BB010689828A83E0225002E722BBFE02C9
:09093C00E32289828A83E49322FC
:10094500BB010CE58229F582E5833AF583E0225067
:1009550006E92582F8E622BBFE06E92582F8E222B1
:0D096500E58229F582E5833AF583E49322CB
:10097200F8BB010DE58229F582E5833AF583E8F0BB
:10098200225006E92582C8F622BBFE05E92582C867
:02099200F2224F
:060994008A838982E473EE
:00000001FF
