:020000020000FC
:100000006DC1189518951895189518951895189507
:100010001895189518951895189518951895189578
:100020001895189518951895189518951895189568
:10003000189518952B0068010000080060016A03FC
:10004000459A429A3B9A389A3D983A9879D0439A81
:10005000409A01E000936A0101E000936B0109E618
:1000600011E022D103EC19E001501040E9F700C083
:1000700000004398409805C040980AEF00000A9598
:10008000E9F700E000936A0100E000936B01359905
:100090000AC0439A01E000936A0101E000936801FD
:1000A0000FE00093910132990AC0409A01E0009359
:1000B0006B0101E0009368010FE000939201009151
:1000C0006801013061F409E611E0EED000E0009330
:1000D0006A0100E000936B0100E00093680100E01A
:1000E00000937E0100E000937F010DE711E0BAD09C
:1000F000013081F400917E01013021F4439A08E23D
:100100000093910100917F01013021F4409A08E2AF
:100110000093920100919101013030F0E1E9F1E0AA
:1001200000810A95008301C043980091920101303B
:1001300008F4A2CFE2E9F1E000810A9500839DCFA7
:100140005298539A549A279A269A51982F982E9AF1
:100150005C9A5A985B98599803EC19E0015010404A
:10016000E9F700C000002F981FE000E23CD010E04B
:1001700001E239D011E002E236D013E003E233D0DD
:1001800010E004E230D010E005E22DD01FE006E2DE
:100190002AD010E201E327D014E020E631E000E3AA
:1001A0004DD014E024E631E00AE248D01FE000E23E
:1001B0001AD02F9A0BE20A95F1F700002F980895B4
:1001C0005C9810E00DC0202F27FD5B9A27FF5B98FD
:1001D000000F5C9A20E04A992395022B5C981395B6
:1001E000183088F308958AD0812F90E02E98E8DFA8
:1001F000902F082FE5DF2E9A092FE2E085C02E9878
:10020000DFDF00E0DDDF2E9A089575D0C901B12F40
:100210004424A0E02E98D4DF402EA0E009C000E0E6
:10022000CFDF2A2F30E0FC01E20FF31F0083A395FC
:10023000AB17A8F32E9A042DE5E063C05CD0D9017A
:10024000912F442480E02E98BBDF402E80E004C034
:100250000C91B6DF119683958917D0F32E9A042D51
:10026000E5E04FC049D0C801A0E0B0E0499B02C022
:1002700000E018C007E0C3DFB02FB6FB36F42F98BC
:1002800010E29C0101E6C1DFA1E01B2F07E2ABDF1A
:100290002F981FE000E2A7DF2F9A0BE20A95F1F7F3
:1002A00000000A2FE4E02EC098012F9810E200EA27
:1002B000C5DF1EE000E297DF2F9A05E30A95F1F70C
:1002C00000002F981FE000E28EDF2F9A0BE20A95C4
:1002D000F1F70000089500008895FECF0FE50DBFEF
:1002E00001E00EBFC0E4D1E016D0002309F023D016
:1002F000A7DEF1DFF0CF4A92BA93AA939A938A933A
:1003000008954C80BB81AA8199818881F0E0EC0F2F
:10031000FD1FEF01089501E0089520E006D0E9F700
:100320000895259102D0E9F708952D9301501040CA
:10033000202F212B089584E390E0FC010591149176
:10034000FC013296A591B491FC013496259134912B
:10035000422F432B19F0F901E4DF01C0DEDF0696DE
:1003600010E08034910748F308953443101034436B
:0203700010106B
:0400000300000000F9
:00000001FF
